:100000000C94FE000C9426010C9426010C942601FD
:100010000C9426010C9426010C9426010C942601C4
:100020000C9426010C9426010C9426010C942601B4
:100030000C9426010C94CD1A0C9426010C942601E4
:100040000C942B1A0C9426010C949B1A0C94751A80
:100050000C9426010C9426010C9426010C94260184
:100060000C94F41A0C9426014E414E494E495459B1
:10007000494E46CDCCCC3D0AD7233C17B7D1387773
:10008000CC2B329595E6241FB14F0A000020410089
:1000900000C84200401C4620BCBE4CCA1B0E5AAED3
:1000A000C59D7400407A10F35A00A0724E180900E2
:1000B00010A5D4E80000E87648170000E40B5402CD
:1000C0000000CA9A3B000000E1F505000080969808
:1000D00000000040420F000000A086010000001058
:1000E0002700000000E8030000000064000000009A
:1000F000000A00000000000100000000002C76D87B
:1001000088DC674F0823DFC1DFAE59E1B1B796E560
:10011000E3E453C63AE651997696E8E6C28426EBC4
:10012000898C9B62ED407C6FFCEFBC9C9F40F2BAD7
:10013000A56FA5F490055A2AF75C936B6CF9676D6F
:10014000C11BFCE0E40D47FEF520E6B500D0ED90C4
:100150002E0300943577050080841E080000204E91
:100160000A000000C80C333333330F986E1283112A
:1001700041EF8D2114893BE65516CFFEE6DB18D101
:10018000844B381BF77C1D901DA4BBE424203284D3
:10019000725E228100C9F124ECA1E53D2700000038
:1001A00000240027002A00000000080002010000CF
:1001B000030407000000000000000000000000230E
:1001C00000260029000102040810204080010204DA
:1001D000081020010204081020000000002500285B
:1001E000002B0004040404040404040202020202BA
:1001F00002030303030303000F1C4B2011241FBE43
:10020000CFEFD8E0DEBFCDBF26E0AEE0B4E001C066
:100210001D92AB34B207E1F714E0A0E0B1E0E2EBED
:10022000F2E502C005900D92AE30B107D9F710E0AB
:10023000CDEFD0E004C02197FE010E943627CC3FCD
:10024000D107C9F70E94CC1C0C944C290C940000D7
:10025000DC0111961C921E9213961C921E9212970C
:100260001B966C931B9786E01C968C931C9788E0DA
:100270001E968C931E978FEF1D968C931D97062EBE
:10028000000C770BFB01ED51FE4FE491F0E0EE0F17
:10029000FF1FE752FE4F8591949156969C938E9343
:1002A00055976B537E4FFB0164915A966C935A9706
:1002B000EBEEF1E0E491F0E0EE0FFF1FE554FE4FAE
:1002C0008591949154969C938E935397EDECF1E025
:1002D000E4915896EC935897E9EEF1E0E491F0E060
:1002E000EE0FFF1FE752FE4F8591949152969C931B
:1002F0008E935197EBECF1E0E4915996EC9359977A
:1003000040E452E46FE070E014964D935D936D937A
:100310007C93179781E090E019969C938E931897A1
:100320001A961C921A975B961C925B975C961C928D
:100330005C9787E05D968C9308958F929F92AF9221
:10034000BF92CF92DF92EF92FF92CF93DF93E09133
:10035000CC04F091CD04F894C481D581808582309D
:10036000D9F5CE018170992795838483789480850F
:100370008430D9F5D595C795D595C79583858823BC
:10038000C9F181859285892F9927D7FF36C0EC0165
:10039000C095D095D093CB04C093CA04209799F10F
:1003A0008091C904811184C081E08093C60480914A
:1003B000730190917401D7FF38C020917101309181
:1003C0007201821793071CF49C012F5F3F4F3093FB
:1003D00074012093730117C0843021F4CE0183701F
:1003E0009927C2CF15821482C1CF823039F6D595B4
:1003F000C795C4CF90E080E0C8CF209799F41092C1
:10040000CB041092CA04D093C804C093C704DF91F0
:10041000CF91FF90EF90DF90CF90BF90AF909F90E3
:100420008F900895EC012196B5CF8230910514F498
:1004300082E090E001979093740180937301E3CF81
:1004400020E030E040EA50E4C701B6010E94E32416
:100450002091C2043091C3044091C4045091C5045A
:100460000E94F6256B017C0120E030E04FEA53E466
:100470000E940A271816ACF020E030E0A901C7015D
:10048000B6010E947D2487FF03C0C12CD12C7601C8
:10049000C092C204D092C304E092C404F092C50496
:1004A000B2CFC12CD12C8FEAE82E83E4F82EF0CF06
:1004B0006091C7047091C8046C1B7D0B072E000C63
:1004C000880B990B0E9484246B017C0181E080934E
:1004D000700180916F01813609F4B2CF823609F044
:1004E00092CF60916B0170916C0180916D01909140
:1004F0006E010E9482244B015C0120E030E040EA62
:1005000050E4C701B6010E94E32420E030E04AE74E
:1005100054E40E94E32420E030E040E752E40E94EB
:10052000E3249B01AC01C501B4010E94F6250E94A1
:10053000DB26462F572FBC01413283EF58078FEF40
:100540006807780720F040E253EF6FEF7FEF403EFF
:1005500083E958078FEF6807780720F440EE53E9E6
:100560006FEF7FEF40936B0150936C0160936D01CF
:1005700070936E0148CFE091CC04F091CD04848556
:100580009585248535852330310511F0158614862F
:10059000009729F0059719F481E08093C10408952C
:1005A000833081F028F4813099F08230A9F00895E9
:1005B0008730A9F08830C9F08430B1F48091800090
:1005C0008F7D03C0809180008F7780938000089595
:1005D00084B58F7784BD089584B58F7DFBCF8091DE
:1005E000B0008F778093B00008958091B0008F7D28
:1005F000F9CFCF93DF93282F30E0F901E955FE4F73
:100600008491F901EB53FE4FD491F901ED51FE4F66
:10061000C491CC23A1F081110E94D002EC2FF0E014
:10062000EE0FFF1FE554FE4FA591B491EC91ED2321
:1006300081E090E009F480E0DF91CF91089580E0BF
:1006400090E0FACF1F93CF93DF93282F30E0F9018A
:10065000E955FE4F8491F901EB53FE4FD491F90116
:10066000ED51FE4FC491CC23A9F0162F81110E94A9
:10067000D002EC2FF0E0EE0FFF1FE752FE4FA591E6
:10068000B4918FB7F894EC91111108C0D095DE2386
:10069000DC938FBFDF91CF911F910895DE2BF8CFB0
:1006A000CF93DF9390E0FC01EB53FE4F24918D51EB
:1006B0009E4FFC0184918823C9F090E0880F991F18
:1006C000FC01E356FE4FA591B491FC01E752FE4FA9
:1006D000C591D49161110DC09FB7F8948C9120956C
:1006E00082238C938881282328839FBFDF91CF9119
:1006F0000895623051F49FB7F8943C91822F809511
:1007000083238C93E8812E2BEFCF8FB7F894EC9155
:100710002E2B2C938FBFEACF8230910538F0880FB3
:10072000991F880F991F05970197F1F708953FB713
:10073000F8948091BD049091BE04A091BF04B09143
:10074000C00426B5A89B05C02F3F19F00196A11D36
:10075000B11D3FBFBA2FA92F982F8827BC01CD010B
:10076000620F711D811D911D42E0660F771F881F6A
:10077000991F4A95D1F708958F929F92AF92BF9299
:10078000CF92DF92EF92FF924B015C010E949703A0
:100790006B017C010E9497036C197D098E099F09EA
:1007A000683E734081059105A8F321E0821A910803
:1007B000A108B10888EEC80E83E0D81EE11CF11C28
:1007C00081149104A104B10429F7FF90EF90DF9008
:1007D000CF90BF90AF909F908F9008952FB7F894CF
:1007E0006091B9047091BA048091BB049091BC04EB
:1007F0002FBF08958F929F92AF92BF92CF92DF92B8
:10080000EF92FF921F93CF93DF93182FEB010E947B
:10081000EE036B017C0188819981AA81BB81A701CC
:100820009601281B390B4A0B5B0BCA01B9010E94C8
:1008300082244B015C0120E030E04FE753E46091FB
:10084000B9057091BA058091BB059091BC050E94D5
:10085000622620E030E04AE754E40E94E3249B0152
:10086000AC01C501B4010E947D2461E087FD0BC08D
:1008700020E030E04AE754E4C501B4010E947D2441
:1008800087FF0FC060E0812FDF91CF911F91FF9014
:10089000EF90DF90CF90BF90AF909F908F900C948F
:1008A0002203C882D982EA82FB82DF91CF911F9115
:1008B000FF90EF90DF90CF90BF90AF909F908F9080
:1008C00008950895AF92BF92CF92DF92EF92FF9278
:1008D0000F931F93CF93DF936C017B018B01040F68
:1008E000151FEB015E01AE18BF08C017D10759F004
:1008F0006991D601ED91FC910190F081E02DC60146
:100900000995892B79F7C501DF91CF911F910F913F
:10091000FF90EF90DF90CF90BF90AF900895FC01D3
:10092000538D448D252F30E0842F90E0821B930B54
:10093000541710F0CF96089501970895FC01918DFA
:10094000828D981761F0A28DAE0FBF2FB11D5D96FD
:100950008C91928D9F5F9F73928F90E008958FEF9F
:100960009FEF0895FC01918D828D981731F0828D53
:10097000E80FF11D858D90E008958FEF9FEF0895AA
:10098000FC01918D228D892F90E0805C9F4F821B0E
:1009900091098F739927089584ED94E00E94C00413
:1009A00021E0892B09F420E0822F089580E090E077
:1009B000892B29F00E94CC0481110C940000089529
:1009C000FC01A48DA80FB92FB11DA35ABF4F2C91C4
:1009D000848D90E001968F739927848FA689B789BB
:1009E0002C93A089B1898C91837080648C93938DB2
:1009F000848D981306C00288F389E02D80818F7D55
:100A000080830895EF92FF920F931F93CF93DF930C
:100A1000EC0181E0888F9B8D8C8D98131AC0E8893A
:100A2000F989808185FF15C09FB7F894EE89FF8909
:100A30006083E889F98980818370806480839FBFA7
:100A400081E090E0DF91CF911F910F91FF90EF90A7
:100A50000895F62E0B8D10E00F5F1F4F0F731127B7
:100A6000E02E8C8D8E110CC00FB607FCFACFE889F2
:100A7000F989808185FFF5CFCE010E94E004F1CF96
:100A8000EB8DEC0FFD2FF11DE35AFF4FF0829FB766
:100A9000F8940B8FEA89FB8980818062CFCFCF9356
:100AA000DF93EC01888D8823B9F0AA89BB89E88996
:100AB000F9898C9185FD03C0808186FD0DC00FB63C
:100AC00007FCF7CF8C9185FFF2CF808185FFEDCFBA
:100AD000CE010E94E004E9CFDF91CF9108950895FF
:100AE0001F93CF93DF93EC018B858F3F39F061E04B
:100AF0000E94500361E08B850E94220388819981C6
:100B0000892B09F439C01FB7F8948091B104811181
:100B100027C0EDEEF1E08491EFECF1E09491E82F45
:100B2000F0E0EE0FFF1FE356FE4FA591B491EC915C
:100B3000E92321F461E08AE00E94220361E08AE077
:100B40000E9450038CB580618CBD8CB580648CBDD7
:100B500061E08DE00E94500361E08BE00E94500351
:100B60008091B1048F5F8093B1041FBF81E08B8FB0
:100B7000DF91CF911F91089561E08C850E94500311
:100B80008A858B7F60E009F061E08C850E942203FA
:100B90008D858F3F39F061E00E94500361E08D85C3
:100BA0000E9422038E858F3F09F360E00E9450036C
:100BB000DDCF20916704260F3327331F2132310503
:100BC000ECF420918B04FC0190E080E0243069F08B
:100BD00082E00895A09167042191AC01495B5B4FCD
:100BE000A40FB52FB11D2C930196861798F3809111
:100BF0006704680F6093670480E0089581E00895BA
:100C000008958FEF9FEF08958FEF9FEF08958091E4
:100C1000400490E09195819591090895CF93DF93D9
:100C2000CB01EA01642F0E94D905CE01DF91CF915B
:100C30000895CF93DF931F92CDB7DEB7698361E04C
:100C4000CE0101960E94D90581E090E00F90DF91DE
:100C5000CF91089590E080E008952F923F924F92B7
:100C60005F926F927F928F929F92AF92BF92CF923C
:100C7000DF92EF92FF920F931F93CF93DF93CDB745
:100C8000DEB72F970FB6F894DEBF0FBECDBF9F879C
:100C90008E870E94EE036D837E838F839887EE8517
:100CA000FF8582A193A1A4A1B5A14D815E816F8131
:100CB0007885481B590B6A0B7B0B86A597A5A0A9C5
:100CC000B1A9481759076A077B0708F426C1048CA5
:100CD000F58DE02D80819181A281B38189839A83F2
:100CE000AB83BC83AE85BF859096ED91FC91298145
:100CF0003A814B815C8160817181828193810E9404
:100D0000F5254B015C01EE85FF8522A533A544A5A1
:100D100055A569817A818B819C810E94F5256B01A3
:100D20007C01AE85BF8550962D913D914D915C9192
:100D30005397C501B4010E94E324EE85FF8526A1E7
:100D400037A140A551A50E94F6252B013C01AE8597
:100D5000BF8596964D925D926D927C929997DB96A7
:100D6000BC91B987B11118C0EE85FF852485358502
:100D700046855785C701B6010E94E3249B01AC015B
:100D8000C301B2010E94F525AE85BF8596966D938D
:100D90007D938D939C939997EE85FF8546A057A0F0
:100DA00060A471A416A907A930AC21AC212F302F63
:100DB000432D522DC301B2010E940A2718160CF0D0
:100DC0008FC0812F902FA32DB22DEE85FF8586A396
:100DD00097A3A0A7B1A7F985FF2309F49AC0AE8510
:100DE000BF851C962D913D914D915C911F97C5013A
:100DF000B4010E94E3244B015C01EE85FF85248948
:100E0000358946895789C701B6010E94E3249B01B1
:100E1000AC01AE85BF8596966D917D918D919C912B
:100E200099970E94F525A50194010E94F6256B0172
:100E30007C019B01AC01612F702F832D922D0E94AC
:100E40007D2487FD14C0EE85FF8512A903A934A86F
:100E500025A8212F302F432D522DB601C7010E9406
:100E60007D2487FD04C01C2D0D2D3E2C2F2CAE851E
:100E7000BF855E96ED91FC91812F902FA32DB22D11
:100E800080839183A283B38389819A81AB81BC8162
:100E9000EE85FF8582A793A7A4A7B5A78D819E8124
:100EA000AF81B88582A393A3A4A3B5A381E02F96B5
:100EB0000FB6F894DEBF0FBECDBFDF91CF911F916B
:100EC0000F91FF90EF90DF90CF90BF90AF909F90E9
:100ED0008F907F906F905F904F903F902F900895EC
:100EE000AE85BF85D2968D919D910D90BC91A02D20
:100EF0008A879B87AC87BD879C01AD01C301B20186
:100F00000E947D2487FF67CF8A859B85AC85BD8540
:100F10005CCF812C912C540170CF80E0C8CF8F9290
:100F20009F92AF92BF92CF92DF92EF92FF92CF93B8
:100F3000DF93EC01EE8DFF8DC080D180E280F380E5
:100F4000CEA2DFA2E8A6F9A6EC8DFD8D808191816D
:100F5000A281B3818AA79BA7ACA7BDA78EA89FA893
:100F6000A8ACB9ACA5019401C701B6010E940A273B
:100F700018162CF48EA29FA2A8A6B9A60CC08AA807
:100F80009BA8ACA8BDA8A5019401C701B6010E9409
:100F90007D2487FDEFCFDF91CF91FF90EF90DF9021
:100FA000CF90BF90AF909F908F9008954F925F9297
:100FB0006F927F928F929F92AF92BF92CF92DF9269
:100FC000EF92FF920F931F93CF93DF9300D000D047
:100FD00000D0CDB7DEB79E838D832A013B01480147
:100FE000590120E030E0A901CB01B2010E947D242B
:100FF00087FD89C020E030E0A901C501B8010E9449
:101000007D2487FD80C020E030E0A901C701B60142
:101010000E947D2487FD77C081E0ED81FE81228DD5
:10102000338D2130310509F080E0ED81FE8183AF01
:10103000408251826282738284829582A682B782C4
:10104000C086D186E286F38666A577A580A991A998
:101050000E94822420E030E04AE754E40E946226A5
:1010600069837A838B839C83ED81FE8144865586D8
:10107000668677869B01AC01C501B4010E94E3241A
:101080004B015C01ED81FE81808A918AA28AB38A3C
:1010900029813A814B815C81C701B6010E94622699
:1010A0006B017C01ED81FE81C48AD58AE68AF78ACC
:1010B000808D918D019739F5A301920160E070E078
:1010C000CB010E94F525ED81FE81648775878687B7
:1010D0009787A501940160E070E0CB010E94F5259F
:1010E000ED81FE81608B718B828B938BA7019601C2
:1010F00060E070E0CB010E94F525ED81FE81648BFC
:10110000758B868B978B26960FB6F894DEBF0FBE35
:10111000CDBFDF91CF911F910F91FF90EF90DF90A6
:10112000CF90BF90AF909F908F907F906F905F9087
:101130004F90089560E08091B3040E942203809153
:10114000B4049091B504892B21F48BE891E00197C8
:10115000F1F7089561E08091B3040E942203809129
:10116000B4049091B504892B21F48BE891E00197A8
:10117000F1F70895EF92FF920F931F93CF9307E03B
:1011800010E0E82EF12CC091B204B701002E02C08D
:10119000759567950A94E2F761708C2F0E9422037F
:1011A0000E94AA080E949A080150110960F760E0A5
:1011B0008C2F0E9450030E94AA088C2F0E94F902D3
:1011C00061E08C2F0E945003CF911F910F91FF90EF
:1011D000EF900C949A080F931F93CF93DF93209175
:1011E000B4043091B504232BE1F4182F0091B2041C
:1011F00060E0802F0E942203CBE8D1E0CE0101976E
:10120000F1F70E949A0880E50E94BA08812F0E9497
:10121000BA080E94AA0861E0802F0E942203219749
:10122000F1F783E592E00197F1F7DF91CF911F91FC
:101230000F9108958EEF0C94EB080E941A098EE42A
:101240000C94EB080E941A0988E40C94EB080E94A5
:101250001A0981E50E94EB0862E070E080E090E00E
:101260000C94BC03CF93C82F0E941A0985E40E94F6
:10127000EB088C2FCF910C94EB08CF93DF93EC010C
:101280008991882319F00E94EB08FACFDF91CF9162
:1012900008951F93CF93DF93EC010E9422090E94CF
:1012A0001A098CE40E94EB0880E00E943209209128
:1012B000690130916A0117E1129FC001139F900DDF
:1012C000112447978C0F9D1F0E943D0980E40E94C6
:1012D00032092091690130916A01129FC001139F68
:1012E000900D11248C0F9D1F0E943D0984E10E94E6
:1012F00032092091690130916A012F5F3F4F129F9F
:10130000C001139F900D11248C0F9D1F0E943D0959
:1013100084E50E9432092091690130916A01129F8F
:10132000C001139F900D11248E968C0F9D1F0E945B
:101330003D0910926801DF91CF911F910895CF92DE
:10134000DF92EF92FF920F931F93CF93DF93C091A1
:10135000CC04D091CD040E94EE036B017C018B85FF
:10136000882359F089859A8502979A878987898584
:101370009A8597FF02C01A86198688810E94F90211
:101380002B8113E02817190609F010E089810E94CB
:10139000F9022B812817190611F481E018278E8194
:1013A0009F81811B80FF77C0212F110F330B3F835B
:1013B0002E832C813D818270082E000C990B0197A1
:1013C000820F931F9D838C8381E09B85992361F01D
:1013D000882351F089859A85883E9B4028F4898529
:1013E0009A8549969A8789878A81882309F44AC011
:1013F0004A895B896C897D8997018601041B150BDD
:10140000260B370BB901A8014A305105610571055A
:10141000C8F1CA8ADB8AEC8AFD8A0E94F9022B8114
:101420002817190661F48F8598890196988B8F8704
:101430008937910520F083E090E09D878C878A8131
:101440000E94F9022B8131E023272817190679F42D
:101450008F859889892B49F08C859D850397E9F4C0
:1014600084E090E09D878C87198A188A1F86898975
:10147000882341F08250898B811104C085E090E07F
:101480009D878C87DF91CF911F910F91FF90EF90F7
:10149000DF90CF90089580E098CF8989823028F03E
:1014A0008C3318F786E090E0DDCF8E85811103C084
:1014B00081E0898BDACF8CE3FCCF2F923F924F9261
:1014C0005F926F927F928F929F92AF92BF92CF92D4
:1014D000DF92EF92FF920F931F93CF93DF93CDB7DD
:1014E000DEB73C0118012901FC01578F468F758F2B
:1014F000648F85EB95E091A380A312AE12AA13AA84
:1015000014AA15AA80E090E0AFE7B3E486AB97ABEE
:10151000A0AFB1AF84E690E0A0E0B0E086A797A7C7
:10152000A0ABB1AB118E108E20E030E0A901C2015A
:10153000B8010E947D2487FD42C020E030E0A9016F
:10154000C701B6010E947D2487FD39C020E030E04C
:10155000A901C501B4010E947D2487FD30C081E04E
:1015600090E0F301938F828F83AF20823182428299
:101570005382C482D582E682F78280869186A286D3
:10158000B38624863586468657862DEC3CEC4CEC9B
:101590005DE3C701B6010E94E324F301608B718B08
:1015A000828B938B2DEC3CEC4CEC5DE3C501B401DC
:1015B0000E946226F301648B758B868B978B0E9449
:1015C000EE03F301C6A4D7A4E0A8F1A86C197D0925
:1015D0008E099F0962A373A384A395A3DF91CF9182
:1015E0001F910F91FF90EF90DF90CF90BF90AF9041
:1015F0009F908F907F906F905F904F903F902F9033
:101600000895FC0101900020E9F73197AF01481BD4
:10161000590BBC0184ED94E00C9462048F929F926C
:10162000AF92BF920F931F93CF93DF93CDB7DEB7E7
:10163000A1970FB6F894DEBF0FBECDBF19A24230FE
:1016400008F44AE08E010F5D1F4F842E912CB12CBF
:10165000A12CA50194010E941427E62FB901CA010B
:10166000EA30F4F4E05DD801EE938D01232B242BB6
:10167000252B79F790E080E0109719F0CD010E94BA
:10168000010BA1960FB6F894DEBF0FBECDBFDF9160
:10169000CF911F910F91BF90AF909F908F90089521
:1016A000E95CE1CF0C94010B4F925F926F927F92B5
:1016B0008F929F92AF92BF92CF92DF92EF92FF9262
:1016C0000F931F93CF936B017C01742EAC019B0190
:1016D0000E940F27882399F08DEA92E0CF911F9105
:1016E0000F91FF90EF90DF90CF90BF90AF909F90C1
:1016F0008F907F906F905F904F900C94010B4601FC
:101700005701E894B7F82FEF3FEF4FE75FE7C501C8
:10171000B4010E940F2781110DC02FEF3FEF4FE75B
:101720005FE7C501B4010E947D2418161CF481EB0B
:1017300092E0D4CF2FEF3FEF4FE75FE4C701B60150
:101740000E940A2718161CF485EB92E0C7CF2FEFF2
:101750003FEF4FE75FECC701B6010E947D2487FD94
:10176000F3CF20E030E0A901C701B6010E947D243B
:1017700010E000E087FF0AC06DE284ED94E00E9473
:1017800002058C01F7FAF094F7F8F094C0E060E0FD
:1017900070E080E09FE37C1641F020E030E040E222
:1017A00051E40E946226CF5FF6CFA70196010E9406
:1017B000F6252B013C010E94DB264B015C014AE02F
:1017C0000E940E0B7C01E00EF11ECC23C1F1C5017D
:1017D000B4010E9482249B01AC01C301B2010E94AA
:1017E000F5254B015C016EE284ED94E00E94020558
:1017F000E80EF91EC15018F120E030E040E251E45B
:10180000C501B4010E94E3242B013C010E94DB26A8
:101810004B01B12CA12C4AE0C501B4010E940E0B72
:10182000E80EF91EC501B4010E9482249B01AC019F
:10183000C301B2010E94F5254B015C01DBCFC7015A
:10184000CF911F910F91FF90EF90DF90CF90BF90BD
:10185000AF909F908F907F906F905F904F90089582
:1018600042E00C94540BCF93DF93FC0144815581EB
:101870006081718184ED94E00E946204EC0189EB47
:1018800092E00E94010B8C0F9D1FDF91CF91089574
:10189000CF93DF930E94010BEC0189EB92E00E9451
:1018A000010B8C0F9D1FDF91CF910895AF92BF92D6
:1018B000DF92EF92FF920F931F93CF93DF93CDB7F9
:1018C000DEB728970FB6F894DEBF0FBECDBF60918C
:1018D000690170916A019B0121503109E7E1E69F9E
:1018E000A001E79F500D1124840F951FF0E0E0E068
:1018F00050E040E010E000E04797243031050CF064
:1019000040C07C01EE0EFF1E570170E060E0D70181
:10191000DD907D01D11001C08B016F5F7F4F67317A
:101920007105A9F7D501A00FB11F11966C9163370E
:1019300009F44EC06637D9F42130310541F00CF07E
:101940005FC06EE070E02115310519F010C06EE443
:1019500070E0DA01AA0FBB1FEE24E394F12CEC0E29
:10196000FD1EAE0DBF1D6D937C934F5F5F4F2F5FCC
:101970003F4F7796C2CF60E470E0EBCF62E270E059
:10198000E8CF50937201409371010E941A0987E4D5
:101990000E94EB08E0917301F09174013197EE0F12
:1019A000FF1FEC0FFD1F81810E9432091092C604B7
:1019B00028960FB6F894DEBF0FBECDBFDF91CF9152
:1019C0001F910F91FF90EF90DF90BF90AF9008951F
:1019D0002130310581F23CF470E060E021153105E1
:1019E00009F4B7CFC4CF64E170E02230310509F4C7
:1019F000B0CF2330310509F0BACF64E570E0A9CF4C
:101A00002230310509F4BACF62E670E023303105A7
:101A100009F49FCFACCFFC01448155818091D20461
:101A20009091D3048417950780F08091CE04909113
:101A3000CF04009751F0608171816115710529F023
:101A40000E943E2921E0892B09F020E0822F089591
:101A5000FC0180819181009711F00C947A2060E064
:101A600070E0CB0108950F931F93CF93DF938C0108
:101A7000EB01FC01808191810097E1F0688179811F
:101A800061157105A9F0428153812C813D81421776
:101A9000530770F00E9437298C819D81F80195834E
:101AA00084831D821C82DF91CF911F910F91089535
:101AB0000E94D82788819981F801918380838A8147
:101AC0009B81938382838C819D81958384831982FA
:101AD00018821B821A82E5CFCF93DF93EC018881B5
:101AE0009981009711F00E94D827198218821D82CF
:101AF0001C821B821A82DF91CF910895FC018081A4
:101B00009181009711F00C94D82708950F931F939B
:101B1000CF93DF93EC0188819981009759F02A8156
:101B20003B812617370730F081E0DF91CF911F917D
:101B30000F9108958B016F5F7F4F0E94612800977E
:101B400059F0998388831B830A832C813D81232B41
:101B500059F7FC011082E8CF80E0E7CFEF92FF92C7
:101B60000F931F93CF93DF93EC017B0119821882AF
:101B70001B821A821D821C82FB0101900020E9F762
:101B800031978F01061B170BB8010E94860D81113A
:101B900009C0CE01DF91CF911F910F91FF90EF907F
:101BA0000C946C0D1D830C83B70188819981DF91A2
:101BB000CF911F910F91FF90EF900C943729EF92E6
:101BC000FF920F931F93CF93DF938C017B01EB0167
:101BD00009900020E9F72197C61BD70BBE010E9490
:101BE000860D811109C0C801DF91CF911F910F911E
:101BF000FF90EF900C946C0DF801D583C483B7016E
:101C000080819181DF91CF911F910F91FF90EF9093
:101C10000C943729CF92DF92EF92FF920F931F938C
:101C2000CF93DF936C017B010091D2041091D30418
:101C30000617170720F48F2D7801062F182F6BEB4E
:101C400072E0C6010E94AE0DC091D204D091D304BF
:101C5000EC16FD06F8F40C171D0708F4E801E091F6
:101C6000CE04F091CF04EC0FFD1F10811082609123
:101C7000CE047091CF046E0D7F1DC60161157105F4
:101C800099F00E94DF0D8091CE049091CF04C80F8F
:101C9000D91F1883C601DF91CF911F910F91FF903B
:101CA000EF90DF90CF9008950E946C0DECCF0F93D2
:101CB0001F93CF93DF93CDB7DEB762970FB6F8943B
:101CC000DEBF0FBECDBF8C01CB01F80111821082A7
:101CD00013821282158214824AE0BE016F5F7F4F29
:101CE0000E947E20BE016F5F7F4FC8010E94DF0D02
:101CF00062960FB6F894DEBF0FBECDBFDF91CF91D5
:101D00001F910F910895EF92FF920F931F93CF931E
:101D1000DF936115710541F480E0DF91CF911F9150
:101D20000F91FF90EF90089541155105B1F07B019F
:101D3000EC010C811D81040F151FB8010E94860D56
:101D4000882351F3288139818C819D81B701820FCD
:101D5000931F0E9437291D830C8381E0DECFCF9330
:101D6000DF93EC01FB0101900020E9F73197AF010F
:101D7000461B570B0E94830E811103C0CE010E94A7
:101D80006C0DCE01DF91CF910895CF93DF93EC01DD
:101D9000FB0144815581608171810E94830E811114
:101DA00003C0CE010E946C0DCE01DF91CF9108954A
:101DB0000F931F93CF93DF93CDB7DEB72C970FB65A
:101DC000F894DEBF0FBECDBF8C018CEB92E00E9479
:101DD000480C0130110569F51092B704B801CE0125
:101DE00007960E94570E6CEC72E0CE0101960E949D
:101DF000AE0DBE01695F7F4FCE0101960E94C50EF8
:101E000061ED72E00E94AF0E0E94330CCE0101968C
:101E10000E947E0DCE0107960E947E0D2C960FB675
:101E2000F894DEBF0FBECDBFDF91CF911F910F9110
:101E300008951092B604D2CFEF92FF920F931F93A2
:101E4000CF93DF93CDB7DEB72C970FB6F894DEBFF4
:101E50000FBECDBF7C018B0186ED92E00E94480C45
:101E6000C7010E947005F701848F811136C081E09F
:101E70000130110579F58093B704B801CE010796BA
:101E80000E94570E60EF72E0CE0101960E94AE0DE7
:101E9000BE01695F7F4FCE0101960E94C50E67EBC0
:101EA00073E00E94AF0E0E94330CCE0101960E9497
:101EB0007E0DCE0107960E947E0D2C960FB6F894EB
:101EC000DEBF0FBECDBFDF91CF911F910F91FF906D
:101ED000EF9008958093B604D0CF01301105B9F486
:101EE0001092B704B801CE0107960E94570E60EF1A
:101EF00072E0CE0101960E94AE0DBE01695F7F4F78
:101F0000CE0101960E94C50E61ED72E0CACF10921B
:101F1000B604E8CF4F925F926F927F928F929F921A
:101F2000AF92BF92CF92DF92EF92FF920F931F93E7
:101F3000CF93DF9300D000D0CDB7DEB78C01DC01AA
:101F40005C968C91811105C0C8010E947005F80152
:101F5000848F44E050E06FEF70E0CE0101960E9464
:101F60002729D8018D919C911197892B39F01296D0
:101F7000ED91FC91908181819CBD8DBDF80183859F
:101F80008F3F19F060E00E9422038981D8012D91D2
:101F90003C91232B09F446C08EBDFE0131969E0173
:101FA0002C5F3F4F2E173F0741F091810DB407FE84
:101FB000FDCF8EB59EBD8193F5CF0DB407FEFDCF4D
:101FC0008EB58C83D8011B968C918F3F19F061E000
:101FD0000E94220369817A8176276727762790E01D
:101FE00080E0982F872F762F66272B81622B982FE2
:101FF000872F762F66272C81622B0F900F900F90E2
:102000000F90DF91CF911F910F91FF90EF90DF9094
:10201000CF90BF90AF909F908F907F906F905F9088
:102020004F900895F8012085318555245394232B32
:1020300011F040E8542E8521662463948111612CAF
:10204000D80114962D913D914D915C91179760E2C6
:1020500071EA87E090E00E941427C22EFE013196BB
:102060007F014E01F5E08F0E911CA22EB12CD701FD
:102070004C90D52C712CCC2019F0C5010E948C03FA
:10208000F8018285877F09F05EC085858F3FB1F0BA
:102090009D2D942181E009F480E0681679F0D80143
:1020A0001F96ED91FC91509757968C91992309F4C6
:1020B00044C09081892B808366246394D801519613
:1020C000ED91FC915297808159969C91892B808348
:1020D000CC2019F0C5010E948C03F80186858F3F42
:1020E00051F00388F489E02D8081D80158969C91A5
:1020F000892309F07D28D8015196ED91FC915297E2
:10210000908159968C91809589238083F8018685EA
:102110008F3F11F0D7017C92F80180859185892B42
:1021200009F051C0DD0CD110A6CFFFEFEF1AFF0A66
:102130008E149F0409F09BCF45CF90818095892311
:102140008083612CBBCFD8010188F289E02D80818A
:1021500059969C91892B8083CC2019F0C5010E944F
:102160008C03F80185858F3F61F00784F089E02DAD
:10217000D80157968C919D2D942109F19081892B3E
:102180008083D8015196ED91FC9152979081599698
:102190008C9159978095892380831E968C911E97E8
:1021A0008F3F09F4B3CF5396ED91FC915497808102
:1021B00058969C91892309F4A9CF7D28A7CF9081B7
:1021C00080958923DDCFD694AECF0F931F93CF9305
:1021D000DF93EC010E948A0F0D8D10E030E020E0CB
:1021E0000623172328233923012B022B032B09F560
:1021F00097FF17C032E196958795779567953A9541
:10220000D1F7706C8F6F9F6F0E94842420E030E0C4
:1022100040E85EE30E94E324DF91CF911F910F918C
:10222000089522E195958795779567952A95D1F739
:10223000EBCF60E070E080EC9FE7EECF1F93CF9391
:10224000DF9385ED8093BC0080914304909144041A
:10225000A0914504B09146040796A11DB11D23E04D
:10226000B695A795979587952A95D1F72091BC00AB
:1022700024FD03C010928B0452C04091430450913E
:1022800044046091450470914604452B462B472B2E
:1022900069F30097A105B10541F02AE22A95F1F70B
:1022A00000C00197A109B109E1CF80914204C1E0CA
:1022B000C0934104882399F1D091B8001091BA00DD
:1022C0008091BC008A7B8093BC0060E082E10E9428
:1022D000220360E083E10E94220310928B04C093EA
:1022E0008D0410928C0461E082E10E94220361E07F
:1022F00083E10E9422038091B9008E7F8093B90010
:102300008091B9008D7F8093B90088E48093B800F4
:1023100085E48093BC001093BA00D093B800DF919D
:10232000CF911F9108950F931F93CF93DF93CDB754
:10233000DEB7AD970FB6F894DEBF0FBECDBF182F36
:102340006BEB72E0CE0188960E94AE0D113691F0D3
:10235000123609F44BC0CE0188960E947E0DAD96D0
:102360000FB6F894DEBF0FBECDBFDF91CF911F91A6
:102370000F9108956091C2047091C3048091C404C8
:102380009091C5041BA21AA21DA21CA21FA21EA2EC
:102390008E010F5F1F4F20E042E00E945C200097FB
:1023A00001F1BC01CE0182960E94DF0DBE016E5D7F
:1023B0007F4FCE0188960E94330DCE0182960E94F7
:1023C0007E0D01E010E08CA59DA50817190708F007
:1023D0004AC00E941A0989E40E94EB080F5F1F4F50
:1023E000F2CFCE0182960E946C0DE0CF60916B011E
:1023F00070916C0180916D0190916E0120E63AEE32
:1024000040E050E00E941427CA01B9011BA21AA2A1
:102410001DA21CA21FA21EA22AE0AE014F5F5F4FA9
:102420000E948920BE016F5F7F4FCE0182960E947D
:10243000DF0DBE016E5D7F4FCE0188960E94330D89
:10244000CE0182960E947E0D10E000E08CA59DA535
:102450000817190740F40E941A0989E40E94EB0842
:102460000F5F1F4FF3CF88A599A50E943D0973CF39
:10247000AF92BF92CF92DF92FF920F931F93CF93B1
:10248000DF938C01C091C904C1113DC080916801E6
:10249000811139C00E9422098091690190916A01DD
:1024A000EC01219747E1489F9001499F300D11248D
:1024B000020F131FD12CC12CB12CA12C07511109D3
:1024C000C430D1050CF05BC0D801AC0DBD1DFD01C1
:1024D00090E080E02D91211101C05C0101968731CF
:1024E0009105C1F7EA0DFB1D8181863739F4F28031
:1024F000C130D10571F164F42097D9F0219687E1BC
:10250000C80ED11CDDCF0E942209C111C5CFC2CF98
:10251000C230D10549F1C330D10581F785E60E946B
:1025200032090E941D090E941D090E941D0985E6AD
:102530000AC081E10E9432090E941D090E941D0902
:102540000E941D0981E10E9432098F2D0E94931182
:10255000D5CF81E50E9432090E941D090E941D0904
:102560000E941D0981E5EFCF86E20E9432090E9498
:102570001D090E941D090E941D0986E2E4CF1092E8
:102580007001DF91CF911F910F91FF90DF90CF905D
:10259000BF90AF900895CF93DF93CDB7DEB7CC5502
:1025A000D1090FB6F894DEBF0FBECDBF8CE5E7E8CA
:1025B000F1E0DE01119601900D928A95E1F70E94FB
:1025C0000B130E949D010E94BB0280916801882329
:1025D00021F0CE0101960E944909CE0101960E9488
:1025E000560C8091C104882321F0CE0101960E94EF
:1025F0005D1980917001882321F0CE0101960E941F
:102600003812C45ADF4F0FB6F894DEBF0FBECDBFED
:10261000DF91CF910895AF92BF92CF92DF92EF9268
:10262000FF920F931F93CF93DF9300D000D000D081
:10263000CDB7DEB780913804811109C06BEB72E031
:102640008EEC94E00E94AE0D81E08093380484ED1E
:1026500094E00E94C004181619060CF03FC284EDE5
:1026600094E00E949E04182F89831A8241E050E072
:10267000BE016F5F7F4F8EEC94E00E94830E1A3094
:1026800031F7C090CE04D090CF04C114D10441F0F2
:102690000091D2041091D30476010115110581F542
:1026A0006EEF72E0CE0101960E94AE0DCE01019652
:1026B0000E940B0D182FCE0101960E947E0D112352
:1026C00009F45AC063E070E0CE0101960E940A0E40
:1026D000CE0101960E94280D609334047093350456
:1026E0008093360490933704CE0101960E947E0DAC
:1026F0006BEB72E08EEC94E00E94DF0DA8CF7501C9
:1027000057018FEFA81AB80AF7018081082E000C34
:10271000990B0E944C24892B91F7015011090C0D43
:102720001D1DF8018081082E000C990B0E944C247D
:10273000892B31F00E151F0518F001501109F1CF4A
:10274000A8014F5F5F4F4E195F095093D304409328
:10275000D204CE14DF0420F4B701C6010E941E2962
:10276000E091CE04F091CF048091D2049091D304F3
:10277000E80FF91F108294CF62E073E0CE0101965A
:102780000E94AE0DCE0101960E940B0D182FCE01B6
:1027900001960E947E0D112399F063E070E0CE0156
:1027A00001960E940A0ECE0101960E94280D6093A8
:1027B000300470933104809332049093330494CFA7
:1027C00066E073E0CE0101960E94AE0DCE01019647
:1027D0000E940B0D182FCE0101960E947E0D112331
:1027E00099F063E070E0CE0101960E940A0ECE01DE
:1027F00001960E94280D6093C2047093C3048093D5
:10280000C4049093C50470CF6AE073E0CE010196D2
:102810000E94AE0DCE0101960E940B0D182FCE0125
:1028200001960E947E0D112399F063E070E0CE01C5
:1028300001960E940A0ECE0101960E94280D609317
:10284000B9057093BA058093BB059093BC054CCF36
:102850006EE073E0CE0101960E94AE0DCE010196AE
:102860000E940B0D182FCE0101960E947E0D1123A0
:1028700099F063E070E0CE0101960E940A0ECE014D
:1028800001960E94280D60937105709372058093E4
:1028900073059093740528CF62E173E0CE01019631
:1028A0000E94AE0DCE0101960E940B0D182FCE0195
:1028B00001960E947E0D112309F163E070E0CE01C4
:1028C00001960E940A0ECE0101960E94280D20E07A
:1028D00030E04AE754E40E94E32420E030E040E79F
:1028E00052E40E94E3240E94D42660932C04709347
:1028F0002D0480932E0490932F04F6CE66E173E0AE
:10290000CE0101960E94AE0DCE0101960E940B0DE4
:10291000182FCE0101960E947E0D112309F163E06C
:1029200070E0CE0101960E940A0ECE0101960E942F
:10293000280D20E030E04AE754E40E94E32420E040
:1029400030E040E752E40E94E3240E94D4266093E2
:102950006B0170936C0180936D0190936E01C4CEF6
:1029600067E173E0CE0101960E94AE0DCE010196A3
:102970000E940B0D182FCE0101960E947E0D11238F
:1029800009F162E070E0CE0101960E940A0ECE01CC
:1029900001960E94280D20E030E04AE754E40E94AE
:1029A000E32420E030E040E752E40E94E3240E9468
:1029B000D426609328047093290480932A0490936A
:1029C0002B0492CE6AE173E0CE0101960E94AE0D17
:1029D000CE0101960E940B0D182FCE0101960E9488
:1029E0007E0D112399F063E070E0CE0101960E9404
:1029F0000A0ECE0101960E94280D60937D0170930E
:102A00007E0180937F01909380016ECE6EE173E032
:102A1000CE0101960E94AE0DCE0101960E940B0DD3
:102A2000182FCE0101960E947E0D112399F063E0CC
:102A300070E0CE0101960E940A0ECE0101960E941E
:102A4000280D6093790170937A0180937B019093B4
:102A50007C014ACE62E273E0CE0101960E94AE0D87
:102A6000CE0101960E940B0D182FCE0101960E94F7
:102A70007E0D112399F063E070E0CE0101960E9473
:102A80000A0ECE0101960E94280D60937501709385
:102A90007601809377019093780126CE8091D204BD
:102AA0009091D304892B09F423CE0091CE04109188
:102AB000CF0466E273E0C8010E942E29892B19F425
:102AC0000E94CB1215CE6BE273E0C8010E942E2942
:102AD000892B09F00DCE0E947F150ACE26960FB6DF
:102AE000F894DEBF0FBECDBFDF91CF911F910F9144
:102AF000FF90EF90DF90CF90BF90AF9008952F920E
:102B00003F924F925F926F927F928F929F92AF927D
:102B1000BF92CF92DF92EF92FF920F931F93CF93CA
:102B2000DF93CDB7DEB7C056D1090FB6F894DEBF3C
:102B30000FBECDBF8CE5E3EEF1E0DE011196019012
:102B40000D928A95E1F70E94EE036B017C01A1963C
:102B50001CAE1DAE1EAE1FAEA197312C212C0E94C3
:102B60009D010E94BB0280916801882321F0CE0163
:102B700001960E944909CE0101960E94560C80914F
:102B8000C104882321F0CE0101960E945D19809135
:102B90007001882321F0CE0101960E9438128091A5
:102BA0002C0490912D04A0912E04B0912F040A962C
:102BB000A11DB11D80932C0490932D04A0932E048D
:102BC000B0932F040E94EE032B013C01DC01CB01EA
:102BD0008C199D09AE09BF090A97A105B10508F432
:102BE0006AC387E296E00E94E51060933404709314
:102BF0003504809336049093370489E096E00E9470
:102C0000E5108091340490913504A0913604B09180
:102C100037048093300490933104A0933204B0932E
:102C2000330487E296E00E948A0F862F817080939A
:102C30001604677070E061FB882780F980931704A1
:102C400075956795759567956093180489E096E08A
:102C50000E948A0F862F817080931904677070E03C
:102C600061FB882780F980931A047595679575959F
:102C7000679560931B04C0903404D0903504E090B5
:102C80003604F0903704A7019601C701B6010E94EF
:102C90000F27882341F0C0901204D0901304E090D5
:102CA0001404F0901504C0923404D0923504E092DC
:102CB0003604F09237048090300490903104A09054
:102CC0003204B0903304A5019401C501B4010E94FF
:102CD0000F27882341F080900E0490900F04A0905D
:102CE0001004B09011048092300490923104A092AC
:102CF0003204B0923304C0921204D0921304E092D2
:102D00001404F092150480920E0490920F04A09285
:102D10001004B09211040E94EE0300911C04109163
:102D20001D0420911E0430911F04601B710B820B47
:102D3000930B693E73408105910550F16091340415
:102D40007091350480913604909137049B01AC0159
:102D50000E940F2781110EC06091300470913104E0
:102D600080913204909133049B01AC010E940F27A3
:102D7000882371F083E393E00E94480C0E94EE03E5
:102D800060931C0470931D0480931E0490931F0491
:102D90002091340430913504409136045091370429
:102DA0002093BD053093BE054093BF055093C005E9
:102DB0008091300490913104A0913204B091330499
:102DC0008093750590937605A0937705B093780569
:102DD0006091C2047091C3048091C4049091C504B1
:102DE0006093B5057093B6058093B7059093B805C9
:102DF0000E94F5256B017C0120E030E0A9010E94D2
:102E00000A27181624F0F7FAF094F7F8F09420E067
:102E100030E040EA50E4C701B6010E947D2487FFFC
:102E200015C2C090FD05D090FE05E090FF05F09022
:102E300000060091010610910206209103063091D0
:102E400004064091050650910606609107067091B0
:102E5000080681EC95E00E94D60720917505309117
:102E6000760540917705509178056091B505709190
:102E7000B6058091B7059091B8050E94F5256B01C4
:102E80007C0120E030E0A9010E940A27181624F0F6
:102E9000F7FAF094F7F8F09420E030E040EA50E4DC
:102EA000C701B6010E947D2487FFE9C1C090FD05DE
:102EB000D090FE05E090FF05F0900006009101061D
:102EC00010910206209103063091040640910506F8
:102ED00050910606609107067091080689E795E013
:102EE0000E94D6078091FB05882321F081EC95E0B4
:102EF0000E942D068091B305882321F089E795E093
:102F00000E942D0664E274E08BE090E00E94FA03D8
:102F100060E274E08CE090E00E94FA030E94EE030D
:102F200000911C0410911D0420911E0430911F0477
:102F3000601B710B820B930B693E734081059105F9
:102F400008F4E7C080E593E00E94520B06E114E02C
:102F5000F80161918F0170E090E080E04AE00E940A
:102F60000E0B2CE134E02017310791F78EE593E04A
:102F70000E94520B609134047091350480913604A4
:102F8000909137040E94300C85E693E00E94520B2A
:102F90006091300470913104809132049091330437
:102FA0000E94300C8CE693E00E94520B6091C204A8
:102FB0007091C3048091C4049091C5040E94300CA8
:102FC00083E793E00E94520B6091B9057091BA05B6
:102FD0008091BB059091BC050E94300C8AE793E07C
:102FE0000E94520B6091710570917205809173057A
:102FF000909174050E94300C81E893E00E94520B7E
:1030000060912C0470912D0480912E0490912F04D6
:103010000E94822420E030E04AE754E40E946226C5
:1030200020E030E040E752E40E9462260E94300C2B
:1030300088E893E00E94520B609128047091290463
:1030400080912A0490912B040E94822420E030E099
:103050004AE754E40E94622620E030E040E752E470
:103060000E9462260E94300C8EE893E00E94520B70
:1030700060916B0170916C0180916D0190916E0176
:103080000E94822420E030E04AE754E40E94622655
:1030900020E030E040E752E40E9462260E94300CBB
:1030A00085E993E00E94520B60917D0170917E0151
:1030B00080917F01909180010E94300C8FE993E014
:1030C0000E94520B6091790170917A0180917B018D
:1030D00090917C010E94300C89EA93E00E94520B8F
:1030E00060917501709176018091770190917801DE
:1030F00042E00E94540B89EB92E00E94010B0E9477
:10310000EE0360931C0470931D0480931E0490933F
:103110001F040E940B13C090C204D090C304E0901F
:10312000C404F090C504A701960160913404709125
:10313000350480913604909137040E940A2787FD58
:10314000B7C0209130043091310440913204509145
:103150003304C701B6010E947D2418160CF4A8C0E0
:1031600035E0231631041CF44FEF241A340AA196DB
:103170002CAD3DAD4EAD5FADA197C701B6010E942C
:103180007D24811195C055E02516310499F4809174
:10319000280490912904A0912A04B0912B040A9646
:1031A000A11DB11D8093280490932904A0932A04A3
:1031B000B0932B0481E00091280410912904209100
:1031C0002A0430912B0440916B0150916C01609165
:1031D0006D0170916E01041715072607370708F473
:1031E00080E0730162012091C2043091C3044091D8
:1031F000C4045091C504A1962CAF3DAF4EAF5FAF54
:10320000A197882309F4ABCC60E08BE00E942203F5
:1032100060E08CE00E942203C05ADF4F0FB6F894A2
:10322000DEBF0FBECDBFDF91CF911F910F91FF90F9
:10323000EF90DF90CF90BF90AF909F908F907F9056
:103240006F905F904F903F902F900895C0907501C0
:10325000D0907601E0907701F090780100917901AB
:1032600010917A0120917B0130917C0140917D0188
:1032700050917E0160917F0170918001EACDC090F4
:103280007501D0907601E0907701F090780100917F
:10329000790110917A0120917B0130917C0140915C
:1032A0007D0150917E0160917F017091800116CE69
:1032B000312C212C7FCF80E096CF0F931F93CF939B
:1032C000DF93CDB7DEB7C456D1090FB6F894DEBF91
:1032D0000FBECDBF8C01045A1F4F70E060E030E09C
:1032E00020E0FC0150E040E0A191A11101C0BA0131
:1032F0004F5F5F4F47315105B9F7DC01A60FB71F8C
:1033000011964C911197433711F0463791F4F9011A
:10331000EE0FFF1F4DE550E04C0F5D1FE40FF51F52
:1033200012964C91042E000C550B518340832F5F55
:103330003F4F479680179107A1F630937201209373
:10334000710180917301909174011816190614F09F
:1033500081E090E0281739070CF4C90190937401BB
:10336000809373011092C1040197880F991FEDE5B6
:10337000F0E0EC0FFD1F8E0F9F1FFC01808189364E
:1033800009F44BC094F4813609F459C0823609F42B
:1033900056C0CC59DF4F0FB6F894DEBF0FBECDBF7D
:1033A000DF91CF911F910F9108958D3609F43FC0A1
:1033B000803779F70E94270981E080936801809324
:1033C00070018CE5EFE3F2E0DE01119601900D92C1
:1033D0008A95E1F70E940B130E949D010E94BB0297
:1033E00080916801882321F0CE0101960E9449094D
:1033F000CE0101960E94560C8091C104882321F0D1
:10340000CE0101960E945D1980917001882311F30D
:10341000CE0101960E943812DDCF0E94270981E07B
:1034200080936801809370010E947F15B2CF0E9443
:10343000270981E08093680180937001AACF909161
:10344000C90421E092279093C904992309F4A1CFDC
:1034500080936F019ECF1F920F920FB60F9211248F
:103460002F933F938F939F93AF93BF938091B90412
:103470009091BA04A091BB04B091BC043091B804FF
:1034800023E0230F2D3758F50196A11DB11D209380
:10349000B8048093B9049093BA04A093BB04B0938A
:1034A000BC048091BD049091BE04A091BF04B09172
:1034B000C0040196A11DB11D8093BD049093BE046C
:1034C000A093BF04B093C004BF91AF919F918F911F
:1034D0003F912F910F900FBE0F901F90189526E8E7
:1034E000230F0296A11DB11DD2CF1F920F920FB6CE
:1034F0000F9211242F933F934F935F936F937F937A
:103500008F939F93AF93BF93EF93FF9384ED94E0DA
:103510000E94E004FF91EF91BF91AF919F918F9135
:103520007F916F915F914F913F912F910F900FBEBF
:103530000F901F9018951F920F920FB60F921124A3
:103540002F938F939F93EF93FF93E091E404F09177
:10355000E5048081E091EA04F091EB0482FD1BC058
:1035600090818091ED048F5F8F732091EE0482171C
:1035700041F0E091ED04F0E0EC52FB4F958F809329
:10358000ED04FF91EF919F918F912F910F900FBEBE
:103590000F901F9018958081F4CF1F920F920FB655
:1035A0000F9211242F933F934F935F936F937F93C9
:1035B0008F939F93AF93BF93EF93FF93E091660137
:1035C000F09167010995FF91EF91BF91AF919F91A4
:1035D0008F917F916F915F914F913F912F910F90BC
:1035E0000FBE0F901F9018951F920F920FB60F925B
:1035F00011242F933F934F935F936F937F938F93F8
:103600009F93AF93BF93EF93FF938091B900887F0F
:10361000803609F44AC0F0F5883209F4A5C018F5DF
:10362000803109F499C0B8F4882309F4F5C08830D2
:1036300009F492C0FF91EF91BF91AF919F918F914B
:103640007F916F915F914F913F912F910F900FBE9E
:103650000F901F901895883109F486C0803251F779
:1036600080938A0414C0803409F49BC040F48033F2
:10367000B9F38833F9F680938A0485ECAEC08035BF
:1036800009F483C0883509F494C0883499F60E94FF
:103690001E11D0CF883909F48AC038F5883729F04F
:1036A00050F4883611F0803729F683E080938B043C
:1036B0001092890455C0883809F479C0803919F00E
:1036C000803809F0B7CF80918904803208F06FC04C
:1036D000E091890481E08E0F809389048091BB0082
:1036E000F0E0E759FB4F80833BC0803B39F0D0F4DA
:1036F000803A09F477C0883A09F09CCF84E080933F
:103700008B041092680410926704F0E0E0E00995E1
:103710008091670481110FC081E08093670410924B
:10372000470409C0803C09F4A8CF883C09F4A5CF20
:10373000883B09F07FCFE091680481E08E0F809391
:103740006804F0E0E95BFB4F80818093BB009091BF
:1037500068048091670429C08091B0048093BB0005
:1037600085EC8093BC0066CF9091AF048091AE044D
:10377000981758F5E091AF0481E08E0F8093AF0465
:10378000F0E0E257FB4F8081E9CFE091AF0481E0A8
:103790008E0F8093AF048091BB00F0E0E257FB4FA7
:1037A00080839091AF048091AE049817C8F285E8A9
:1037B000D8CFE091AF0481E08E0F8093AF04809169
:1037C000BB00F0E0E257FB4F808380918D048111B4
:1037D0005ECF81E080938C0484EA8093BC001092D9
:1037E0008B0428CF85EC8093BC0010928B048091D1
:1037F0008904803230F4E0918904F0E0E759FB4F0E
:1038000010826091890470E089E694E0F0E0E0E0E5
:103810000995109289040ECF10928A0438CF4F92E6
:103820005F926F927F928F929F92AF92BF92CF9250
:10383000DF92EF92FF920F931F93CF93DF93CDB759
:10384000DEB728970FB6F894DEBF0FBECDBFE4ED0C
:10385000F4E01382128288EE93E0A0E0B0E084836B
:103860009583A683B7838FE992E09183808385EC6B
:1038700090E09587848784EC90E09787868780EC3A
:1038800090E0918B808B81EC90E0938B828B82EC2B
:1038900090E0958B848B86EC90E0978B868B118ED5
:1038A000128E138E148E65E087E296E00E94280146
:1038B00067E089E096E00E94280180917D01909167
:1038C0007E01A0917F01B091800189839A83AB83AF
:1038D000BC838093050690930606A0930706B093D9
:1038E00008068091790190917A01A0917B01B091B5
:1038F0007C018D839E83AF83B8878093010690936C
:103900000206A0930306B093040640907501509000
:10391000760160907701709078014092FD05509299
:10392000FE056092FF0570920006530142016C0192
:103930007D0109811A812B813C8149EB55E06DEBBA
:1039400075E081EC95E00E945D0ACD80DE80EF801D
:10395000F88409811A812B813C8141E755E065E7B4
:1039600075E089E795E00E945D0A28960FB6F89405
:10397000DEBF0FBECDBFDF91CF911F910F91FF90A2
:10398000EF90DF90CF90BF90AF909F908F907F90FF
:103990006F905F904F900895789484B5826084BD55
:1039A00084B5816084BD85B5826085BD85B5816043
:1039B00085BD80916E00816080936E0010928100C1
:1039C000809181008260809381008091810081607C
:1039D000809381008091800081608093800080913D
:1039E000B10084608093B1008091B00081608093C9
:1039F000B00080917A00846080937A0080917A0090
:103A0000826080937A0080917A00816080937A004E
:103A100080917A00806880937A001092C100E091D2
:103A2000E404F091E50412E01083E091E004F091E9
:103A3000E1041082E091E204F091E3048FEC8083D2
:103A40001092EC04E091E804F091E90486E08083B0
:103A5000E091E604F091E704808180618083E09149
:103A6000E604F091E704808188608083E091E604B9
:103A7000F091E704808180688083E091E604F09112
:103A8000E70480818F7D808364EF71E080E090E0C7
:103A90000E94BC031092B5041092B40483E1809399
:103AA000B30482E18093B20461E083E10E94500399
:103AB00061E082E10E94500361E083E10E94220301
:103AC00061E082E10E94220364EF71E080E090E017
:103AD0000E94BC030E9427090E9427090E94220914
:103AE00080E00E94320982E191E00E943D0980E479
:103AF0000E94320987E291E00E943D0984E10E9420
:103B000032098CE391E00E943D0984E50E9432096C
:103B100081E591E00E943D0964E670E080E090E07C
:103B20000E94BC0383E60E94320980E091E00E947B
:103B30003D0964E670E080E090E00E94BC0383E60B
:103B40000E94320986E091E00E943D0964E670E03F
:103B500080E090E00E94BC0383E60E9432098CE082
:103B600091E00E943D0964E670E080E090E00E94F0
:103B7000BC0360E083E00E94500360E084E00E94A8
:103B8000500386E190E00E943C27EC0183E08883AB
:103B900084E089831A831B821D821C821F821E82FD
:103BA00088871A86198681E08B871D861C868E87FA
:103BB000188A1F86198A1A8A1B8A1C8A1D8A62E043
:103BC00083E00E94500362E089810E94500362E01A
:103BD0008A810E94500388810E94F9022B81281754
:103BE000190621F483E090E09F838E8389810E94EF
:103BF000F9022B812817190631F48E819F8121E06B
:103C000082279F838E83D093CD04C093CC0480E120
:103C1000809381001092800080E49FE19093870060
:103C20008093860081E1809381008FE999E09093F1
:103C300067018093660181E080936F0061E085E019
:103C40000E94500361E087E00E94500361E070E051
:103C500087E296E00E941C0F62E070E089E096E047
:103C60000E941C0F8CE50E9432098091B7048823C2
:103C700059F083EB93E00E943D096AE070E080E038
:103C800090E00E94BC03F9CF8FEB93E00E943D09C6
:103C900064E670E080E090E00E94BC038CE50E9446
:103CA00032098091B604882359F08CEC93E00E948D
:103CB0003D096AE070E080E090E00E94BC03F9CF2B
:103CC00088ED93E00E943D0964E670E080E090E0BA
:103CD0000E94BC0361E08BE00E94500361E08CE035
:103CE0000E94500381E090E00E94D80E82E090E0B4
:103CF0000E94D80E8CE50E94320985EE93E00E9466
:103D00003D0964E670E080E090E00E94BC038CE531
:103D10000E94320982EF93E00E943D098AE50E94E9
:103D200032098EEF93E00E943D0964E670E080E086
:103D300090E00E94BC030E9427090E9427098091FD
:103D4000C2049091C304A091C404B091C5048093AF
:103D5000B5059093B605A093B705B093B8058091CB
:103D6000FB05811104C081EC95E00E948F0781E082
:103D70008093FB058091B305811104C089E795E02C
:103D80000E948F0781E08093B3056091EF057091E9
:103D9000F0058091F1059091F2050E9482249B012B
:103DA000AC0160E070E08AE794E40E9462266B0157
:103DB0007C01AC019B016091D1057091D20580918D
:103DC000D3059091D4050E94E3246093D1057093AC
:103DD000D2058093D3059093D405A70196016091F5
:103DE000D5057091D6058091D7059091D8050E9490
:103DF00062266093D5057093D6058093D70590937E
:103E0000D80528EEC22E23E0D22EE12CF12CC09250
:103E1000EF05D092F005E092F105F092F205609185
:103E2000A7057091A8058091A9059091AA050E9407
:103E300082249B01AC0160E070E08AE794E40E9478
:103E400062264B015C01AC019B0160918905709178
:103E50008A0580918B0590918C050E94E3246093E4
:103E6000890570938A0580938B0590938C05A50135
:103E7000940160918D0570918E0580918F059091D0
:103E800090050E94622660938D0570938E05809345
:103E90008F0590939005C092A705D092A805E09257
:103EA000A905F092AA05C12CD12C3CECE32E31E4FB
:103EB000F32EC092F305D092F405E092F505F0924E
:103EC000F605412C512C4FE7642E43E4742E4092AA
:103ED000F7055092F8056092F9057092FA05809105
:103EE000FB05882309F454C0C091DF05D091E0059B
:103EF00088809980AA80BB80A3019201C501B4018A
:103F00000E940A2718162CF5488259826A827B8201
:103F10008090E7059090E805A090E905B090EA054B
:103F2000C090F705D090F805E090F905F090FA05FB
:103F3000A7019601C501B4010E940A271816C4F40E
:103F4000C092E705D092E805E092E905F092EA0513
:103F50001FC020E030E04CEC51E4C501B4010E94E8
:103F60007D2487FFD5CFC882D982EA82FB82D0CF59
:103F7000C090F305D090F405E090F505F090F605BB
:103F8000A7019601C501B4010E947D2487FDD8CF09
:103F9000C12CD12C8CECE82E81E4F82EC092AB051C
:103FA000D092AC05E092AD05F092AE05412C512CBB
:103FB0009FE7692E93E4792E4092AF055092B005A9
:103FC0006092B1057092B205C0919705D0919805A5
:103FD00088809980AA80BB80A3019201C501B401A9
:103FE0000E940A2718162CF5488259826A827B8221
:103FF00080909F059090A005A090A105B090A2058B
:10400000C090AF05D090B005E090B105F090B2053A
:10401000A7019601C501B4010E940A271816C4F42D
:10402000C0929F05D092A005E092A105F092A20552
:104030001FC020E030E04CEC51E4C501B4010E9407
:104040007D2487FFD5CFC882D982EA82FB82D0CF78
:10405000C090AB05D090AC05E090AD05F090AE05FA
:10406000A7019601C501B4010E947D2487FDD8CF28
:1040700064E670E080E090E00E94BC03C0E0D0E025
:104080000E94CB122097E1F30E94CC048823C1F355
:104090000E940000F5CF80910B0690910C060097CE
:1040A00011F00E94D8278091290690912A06009746
:1040B00011F00C94D8270895EF920F931F93CF938C
:1040C000DF93E80134E047FD34E1042E000C550B8A
:1040D00057FF03C0519541955109E32E022F242F1C
:1040E000AE010E94C520CE01DF91CF911F910F91AB
:1040F000EF900895662777270C942422BB274A3037
:1041000031F4992322F4BDE2909581959F4F0C9450
:10411000AC20BB27FA01A62F621771058105910516
:10412000330B30FB66F0AA27660F771F881F991F95
:10413000AA1FA21710F0A21B63953850A9F7A05D23
:10414000AA3308F0A95DA19336F7B111B19310829B
:10415000CA010C946D24BB27FB015527AA27880FA1
:10416000991FAA1FA41710F0A41B83955051B9F7EB
:10417000A05DAA3308F0A95DA193009779F7B1116A
:10418000B1931192CB010C946D24A9E0B0E0EBEC5B
:10419000F0E20C94B5256A01F22EB02E102FFBE34D
:1041A000AF2EA01608F41BE31F5F012F27E0AE011E
:1041B0004F5F5F4F0E947423BC018981982F9970D3
:1041C000913009F43FC09BE2E1FC04C09E2D917048
:1041D000E0FC3AC05E2D5071E82FE87083FF46C0C6
:1041E00084E0911101C083E0EF2DE81B8F1508F0EA
:1041F000E0E0D6018E2F20E2552351F1992329F0DA
:10420000D6019C93C60101966C0196012D5F3F4F2C
:10421000E2FE24C08EE4D6018C9391E411969C9327
:10422000119712968C93D9018E2F90E281111BC0A9
:10423000E20FF32FF11D10828EEF9FEF2996ECE035
:104240000C94D1259DE2C6CF90E2C4CF2D9381502E
:104250008111FCCFCE0ED11CE0E0D0CF8EE6D6018E
:104260008C9391E6DBCF9D938150E0CF482F447033
:1042700082FF3DC084E0911101C083E08F1510F4EE
:10428000EF2DE81BD6018E2F20E2552309F199234B
:1042900029F0D6019C93C60101966C0196012D5F11
:1042A0003F4FE2FE1BC089E4D6018C938EE4119649
:1042B0008C93119786E412968C93D9018E2F90E2FD
:1042C000882309F4B5CF9D938150FACF2D93815067
:1042D0008111FCCFCE0ED11CE0E0D9CF89E6D6010A
:1042E0008C938EE611968C93119786E6E4CF9B0112
:1042F00077FF02C030E020E0A1E0B0E0911102C001
:10430000B0E0A0E0F9013196AE0FBF1F8B2C912CCD
:10431000BB2009F461C05401EFEFAE1ABE0AAA0D2A
:10432000BB1DFA161B0619F014F04F2D4A1B511134
:1043300088C0E3FC59C07601A42FB0E2A1114FC0A0
:10434000C40ED11C992309F45BC040E0D60111963C
:10435000F60190836D01552309F448C0012F060F23
:104360009A81582F507184FF03C0913309F4015092
:1043700010160CF047C0093008F008E0EEE2FE2EFF
:104380005B01A01AB10885019194819491082F3F97
:10439000320729F4D601FC92F60131966F016217BB
:1043A000730794F1021713077CF5DB01A21BB30B13
:1043B000AA24A394B12CAC0EBD1EAA0DBB1D119650
:1043C0008C9121503109D601119628153905F4F048
:1043D000F60180836D01DBCFB12CA12CA0CFF701BA
:1043E000B1937F01A150AACF9111B0CFD601942FE4
:1043F00050E302C05D9391509111FCCFC40ED11CCB
:1044000040E0ACCF01E0BACF80E3DBCF62177307A7
:1044100031F4963388F4953311F4552369F0F6019D
:104420008083FD01842F90E2811108C0A40FB11D8B
:104430001C9290E080E002CF81E3F1CF9193815014
:10444000F3CF911183CF8ACFB0E0A0E0EAE2F2E2AD
:104450000C94B5255C017B016115710519F0DB0138
:104460008D939C9385010F5F1F4FF501D0818D2F98
:1044700090E00E944C246C01892BB9F5DD32B9F52E
:104480000F5F1F4FD5011196DC91C1E05801F1E09B
:10449000AF1AB10843E050E060E770E0C5010E9448
:1044A0005524892B69F5680182E0C80ED11C45E0CE
:1044B00050E06BE670E0C6010E945524892B21F480
:1044C000680197E0C90ED11CE114F10419F0D7017D
:1044D000CD92DC9260E070E080E89FEFC111FFC0F8
:1044E00060E070E080E89FE7FAC05801BBCFDB32A4
:1044F00029F485010E5F1F4FF501D181C0E0C6CFC1
:1045000043E050E068E670E0C5010E945524892B25
:10451000E9F0F80110E000E020E030E0A9015F01DF
:10452000B0ED8B2E8D0E89E08815C8F19C2E689415
:1045300091F88C2F8870C2FF16C0811102C00F5FE6
:104540001F4F3196D501DC91C92DE9CFE114F1045B
:1045500029F00E5F1F4FF7011183008360E070E0C8
:1045600080EC9FE7BCC0882311F001501109A5E041
:10457000B0E00E94A4259B01AC01220F331F441F11
:10458000551F280D311D411D511D283999E9390745
:10459000490799E15907A8F2C6609C2ED2CFAEEF29
:1045A0008A1206C0C3FD3CC09C2E689493F8C9CF04
:1045B000DF7DD534A9F580818D3239F4C061DF010A
:1045C0001296818162E070E006C0DF018B32C1F398
:1045D000119661E070E080535D01A61AB70A8A3037
:1045E000F8F4E0E8CE16ECE0DE065CF4B601660F07
:1045F000771F660F771FC60ED71ECC0CDD1CC80EAA
:10460000D11C5D01FFEFAF1ABF0A8C9180538A3035
:10461000A8F1C4FF03C0D194C194D1080C0D1D1D95
:10462000C1FF09C0E114F10431F081E0A81AB1081A
:10463000D701AD92BC92CA01B9010E948224C37015
:10464000C33009F490584B015C0120E030E0A9012F
:104650000E947D24882309F440C0CFE9D0E017FFF1
:1046600005C0119501951109C7E8D0E06E01B8E1C8
:10467000CB1AD10880E2E82EF12C0FC0D501B1CFC2
:10468000FE0125913591459154910E191F09C501DF
:10469000B4010E94E3244B015C01D501C4010E1555
:1046A0001F0574F72497F594E794CC16DD06A9F757
:1046B0008A2F880F8B2F881F8F3F49F020E030E032
:1046C000A901C501B4010E947D24811106C082E2C6
:1046D00090E09093460680934506C501B401CDB79E
:1046E000DEB7ECE00C94D125283008F027E0332722
:1046F000DA01990F311D87FD916000966105710502
:1047000039F432602E5F3D9330E32A95E1F7089546
:104710009F3F30F080387105610509F03C5F3C5FD8
:104720003D93913008F08068911DDF93CF931F93E4
:104730000F93FF92EF92192F987F9695E92F9695F8
:104740009695E90FFF27E350FF4F99273327EE2473
:10475000FF24A701E70105900894079428F4360F79
:10476000E71EF81E491F511D660F771F881F991FEE
:104770000694A1F70590079428F4E70EF81E491F48
:10478000561FC11D770F881F991F661F0694A1F73A
:104790000590079428F4F80E491F561FC71FD11D16
:1047A000880F991F661F771F0694A1F7059007943D
:1047B00020F4490F561FC71FD81F990F661F771F78
:1047C000881F0694A9F784911095177041F0D6952B
:1047D000C79557954795F794E7941A95C1F7E3EA7B
:1047E000F0E068941590159135916591959105903B
:1047F0007FE27395E118F10A430B560BC90BD00900
:10480000C0F7E10CF11E431F561FC91FD01D7EF4D7
:10481000703311F48A95E6CFE894015030F0080F18
:104820000AF40027021708F4202F2395022F7A3369
:1048300028F079E37D932A95E9F710C07D932A95B6
:1048400089F6069497956795379517951794E1180B
:10485000F10A430B560BC90BD00998F023957E91B2
:1048600073957A3308F070E37C932013B8F77E9148
:1048700070617D9330F0839571E37D9370E32A95A9
:10488000E1F71124EF90FF900F911F91CF91DF91ED
:10489000992787FD9095089591110C9450258032A9
:1048A00019F089508550C8F70895FB01DC0141508B
:1048B000504088F08D9181341CF08B350CF4805E73
:1048C000659161341CF06B350CF4605E861B6111E0
:1048D00071F3990B0895881BFCCFDC01FC01672F55
:1048E00071917723E1F7329704C07C916D937083C7
:1048F0006291AE17BF07C8F308950E94BF2408F461
:1049000081E00895E89409C097FB3EF49095809566
:10491000709561957F4F8F4F9F4F9923A9F0F92F85
:1049200096E9BB279395F695879577956795B79503
:10493000F111F8CFFAF4BB0F11F460FF1BC06F5FE9
:104940007F4F8F4F9F4F16C0882311F096E911C0FB
:10495000772321F09EE8872F762F05C0662371F01C
:1049600096E8862F70E060E02AF09A95660F771F30
:10497000881FDAF7880F9695879597F90895990F0C
:104980000008550FAA0BE0E8FEEF16161706E80719
:10499000F907C0F012161306E407F50798F0621B3A
:1049A000730B840B950B39F40A2661F0232B242B0F
:1049B000252B21F408950A2609F4A140A6958FEF2E
:1049C000811D811D08950E94F6240C946A250E9481
:1049D0005C2538F00E94632520F0952311F00C949B
:1049E00053250C94592511240C949E250E947B2557
:1049F00070F3959FC1F3950F50E0551F629FF00132
:104A0000729FBB27F00DB11D639FAA27F00DB11D4A
:104A1000AA1F649F6627B00DA11D661F829F2227D3
:104A2000B00DA11D621F739FB00DA11D621F839F5A
:104A3000A00D611D221F749F3327A00D611D231F30
:104A4000849F600D211D822F762F6A2F11249F577E
:104A500050409AF0F1F088234AF0EE0FFF1FBB1F81
:104A6000661F771F881F91505040A9F79E3F510540
:104A700080F00C9453250C949E255F3FE4F3983E00
:104A8000D4F3869577956795B795F795E7959F5FEA
:104A9000C1F7FE2B880F911D9695879597F908957C
:104AA00099278827089597F99F6780E870E060E06C
:104AB00008959FEF80EC089500240A9416161706B7
:104AC00018060906089500240A94121613061406FF
:104AD00005060895092E0394000C11F4882352F062
:104AE000BB0F40F4BF2B11F460FF04C06F5F7F4F1A
:104AF0008F4F9F4F089557FD9058440F551F59F001
:104B00005F3F71F04795880F97FB991F61F09F3FBA
:104B100079F087950895121613061406551FF2CFE3
:104B20004695F1DF08C0161617061806991FF1CF33
:104B300086957105610508940895E894BB2766275A
:104B40007727CB0197F908950E94E625A59F900D40
:104B5000B49F900DA49F800D911D112408952F9254
:104B60003F924F925F926F927F928F929F92AF92FD
:104B7000BF92CF92DF92EF92FF920F931F93CF934A
:104B8000DF93CDB7DEB7CA1BDB0B0FB6F894DEBFE1
:104B90000FBECDBF09942A88398848885F846E8407
:104BA0007D848C849B84AA84B984C884DF80EE8051
:104BB000FD800C811B81AA81B981CE0FD11D0FB65A
:104BC000F894DEBF0FBECDBFED010895A29FB001E6
:104BD000B39FC001A39F700D811D1124911DB29F31
:104BE000700D811D1124911D08955058BB27AA27CF
:104BF0000E940D260C946A250E945C2538F00E94C4
:104C0000632520F039F49F3F19F426F40C945925BC
:104C10000EF4E095E7FB0C945325E92F0E947B25C9
:104C200058F3BA17620773078407950720F079F4E1
:104C3000A6F50C949D250EF4E0950B2EBA2FA02D11
:104C40000B01B90190010C01CA01A0011124FF2739
:104C5000591B99F0593F50F4503E68F11A16F04034
:104C6000A22F232F342F4427585FF3CF4695379533
:104C70002795A795F0405395C9F77EF41F16BA0BF8
:104C8000620B730B840BBAF09150A1F0FF0FBB1FA6
:104C9000661F771F881FC2F70EC0BA0F621F731FEF
:104CA000841F48F4879577956795B795F7959E3F4C
:104CB00008F0B0CF9395880F08F09927EE0F9795DD
:104CC000879508950E9476260C946A250E94632594
:104CD00058F00E945C2540F029F45F3F29F00C94C5
:104CE000532551110C949E250C9459250E947B2527
:104CF00068F39923B1F3552391F3951B550BBB270B
:104D0000AA2762177307840738F09F5F5F4F220F4F
:104D1000331F441FAA1FA9F335D00E2E3AF0E0E846
:104D200032D091505040E695001CCAF72BD0FE2F90
:104D300029D0660F771F881FBB1F26173707480724
:104D4000AB07B0E809F0BB0B802DBF01FF279358DC
:104D50005F4F3AF09E3F510578F00C9453250C9428
:104D60009E255F3FE4F3983ED4F38695779567954B
:104D7000B795F7959F5FC9F7880F911D9695879511
:104D800097F90895E1E0660F771F881FBB1F621730
:104D900073078407BA0720F0621B730B840BBA0BEE
:104DA000EE1F88F7E09508950E94DB266894B11104
:104DB0000C949E2508950E94832588F09F5798F0B3
:104DC000B92F9927B751B0F0E1F0660F771F881F10
:104DD000991F1AF0BA95C9F714C0B13091F00E942A
:104DE0009D25B1E008950C949D25672F782F882785
:104DF000B85F39F0B93FCCF3869577956795B39551
:104E0000D9F73EF490958095709561957F4F8F4FBF
:104E10009F4F08950E94BF2408F48FEF08950E94C9
:104E2000BF24880B990B0895A1E21A2EAA1BBB1B65
:104E3000FD010DC0AA1FBB1FEE1FFF1FA217B30766
:104E4000E407F50720F0A21BB30BE40BF50B661F7C
:104E5000771F881F991F1A9469F760957095809540
:104E600090959B01AC01BD01CF010895EE0FFF1F8E
:104E70000590F491E02D09940F931F93CF93DF9346
:104E80008230910510F482E090E0E0914906F091C3
:104E90004A0630E020E0B0E0A0E0309799F4211518
:104EA000310509F44AC0281B390B24303105D8F5E7
:104EB0008A819B816115710589F1FB01938382834E
:104EC000FE0111C0408151810281138148175907A9
:104ED000E0F04817590799F4109761F012960C9377
:104EE000129713961C933296CF01DF91CF911F91A9
:104EF0000F9108950093490610934A06F4CF2115A7
:104F0000310551F04217530738F0A901DB019A012E
:104F1000BD01DF01F801C1CFEF01F9CF90934A063F
:104F200080934906CDCFFE01E20FF31F8193919349
:104F30002250310939832883D7CF209147063091F9
:104F40004806232B41F42091830130918401309352
:104F50004806209347062091810130918201211556
:104F6000310541F42DB73EB740918501509186013E
:104F7000241B350BE0914706F0914806E217F30732
:104F8000A0F42E1B3F0B2817390778F0AC014E5FB9
:104F90005F4F2417350748F04E0F5F1F50934806A8
:104FA00040934706819391939FCFF0E0E0E09CCF40
:104FB000CF93DF930097E9F0FC01329713821282BE
:104FC000A0914906B0914A06ED0130E020E010972B
:104FD000A1F420813181820F931F209147063091E7
:104FE00048062817390709F061C0F0934806E09396
:104FF0004706DF91CF910895EA01CE17DF07E8F564
:105000004A815B819E0141155105B1F7E901FB839E
:10501000EA8349915991C40FD51FEC17FD0761F43C
:10502000808191810296840F951FE901998388837D
:10503000828193819B838A83F0E0E0E012968D91D8
:105040009C9113970097B9F52D913C911197CD0143
:105050000296820F931F2091470630914806281729
:10506000390739F6309751F510924A0610924906E1
:10507000B0934806A0934706BCCFD383C283408138
:105080005181840F951FC817D90761F44E5F5F4F98
:1050900088819981480F591F518340838A819B8160
:1050A000938382832115310509F0B0CFF0934A062E
:1050B000E09349069ECFFD01DC01C0CF138212822E
:1050C000D7CFB0E0A0E0E7E6F8E20C94B1258C0180
:1050D000009751F4CB010E943C278C01C801CDB749
:1050E000DEB7E0E10C94CD25FC01E60FF71F9C0133
:1050F00022503109E217F30708F49DC0D901CD9180
:10510000DC911197C617D70798F0C530D10530F359
:10511000CE0104978617970708F3C61BD70B229773
:10512000C193D1936D937C93CF010E94D827D6CFA2
:105130005B01AC1ABD0A4C018C0E9D1EA091490664
:10514000B0914A06512C412CF12CE12C109731F5ED
:1051500080914706909148068815990509F05CC032
:105160004616570608F058C080918101909182013F
:10517000009741F48DB79EB740918501509186010B
:10518000841B950BE817F90708F055C0F093480603
:10519000E0934706F90171836083A0CF8D919C91C4
:1051A000119712966C90129713967C901397A815EE
:1051B000B90559F56C0142E0C40ED11CCA14DB04D8
:1051C00020F1AC014A195B09DA011296159780F0BB
:1051D0006282738251834083D9016D937C93E11481
:1051E000F10471F0D7011396FC93EE93129776CFEA
:1051F00022968C0F9D1FF90191838083F301EFCFDD
:10520000F0934A06E093490669CF4816590608F418
:105210002C017D01D3019ACFCB010E943C277C0158
:10522000009749F0AE01B8010E941E29C8010E94F2
:10523000D827870153CF10E000E050CFFB01DC01FD
:1052400002C001900D9241505040D8F70895DC0102
:1052500001C06D9341505040E0F70895FB01DC011F
:105260008D91019080190110D9F3990B0895FB01DC
:10527000DC0101900D920020E1F70895FB01DC01B3
:105280004150504030F08D910190801919F4002068
:10529000B9F7881B990B089510E0CDEFD0E004C05A
:1052A000FE010E9436272196CE3FD107C9F7F89418
:0252B000FFCF2E
:1052B2002E20202020002E202E2020002E202E20E6
:1052C2002E00464153542052657365617263682013
:1052D20047726F75703A004F70656E20536F75722A
:1052E200636520436F6C6420616E6400486F7420B4
:1052F200536369656E746966696320536865657492
:10530200005072657373202D3E4C6F6164696E6745
:105312002020202020006F05010100E093040020DE
:1053220001010001000AD7A33CCDCCCC3D00008096
:105332003F00004B0680004F5343485353502076A2
:10534200302E302E312020202020200064203E20CC
:10535200426567696E2050726F6365737320202007
:1053620020200073703E2054756E696E6720506174
:1053720072616D2020202020200073743E2053652E
:105382007474696E67732020202020202020202042
:1053920000737343757272656E742074656D70204C
:1053A200313A202020202000642043757272656EFD
:1053B200742074656D7020323A2020202020006411
:1053C20020536574706F696E742074656D703A2035
:1053D200202020202000766144757479206379634F
:1053E2006C653A2020202020202020200064205EAE
:1053F200204261636B2020202020202020202020BA
:1054020020202000736D536574706F696E74207470
:10541200656D703A2020202020200076615365744B
:10542200706F696E742074696D653A2020202020A7
:10543200200076623E20496E69746961746520209D
:10544200202020202020202000736900000000027C
:105452000562048F044F05C0049E04B2046E616E9F
:1054620000696E66006F7666000D0A004368656328
:105472006B696E67205353522E2E2E0053535220C7
:1054820000204F4B2E00496E697469616C697A691C
:105492006E672054432073656E736F722E2E2E003A
:1054A200546865726D6F636F75706C65200074313E
:1054B2003D0074323D0073743D006F313D006F3228
:1054C2003D0074743D0064743D006B703D006B6977
:1054D2003D006B643D006C6F6F700070726F6365AE
:1054E2007373004572726F723A20746865726D6FE1
:1054F200636F75706C65206661696C7572652E00EC
:105502004572726F7220666C6167733A20002C20BC
:1055120074313A20002C2074323A20002C2073740B
:105522003A20002C206F313A20002C206F323A2092
:10553200002C2074743A20002C20743A20002C2075
:1055420064743A20002C206167674B703A20002C6B
:10555200206167674B693A20002C206167674B64C2
:105562003A200054432D31204552524F522E0054BE
:10557200432D31204F4B2E202020200054432D322A
:10558200204552524F522E0054432D32204F4B2E63
:1055920020202020005353522D31204F4B2E20200B
:1055A20020005353522D32204F4B2E20200020201A
:0E55B20020202020202020202020202000006B
:00000001FF
